:0300000002094EA4
:0C094E00787FE4F6D8FD75812B02099536
:100A86005741495420005354415254005041555344
:100A96004500434C454152004F4646004F4E20000C
:100AA600533A002056553A0054494D453A003A000B
:020AB6002E0010
:100A5300021C00000208000002260000022400001D
:100A6300020A00000C10FF0A86FF0A8CFF0A92FF9D
:100A73000A98020C0000061EFF0A9EFF0AA2020E3D
:020A8300000071
:100B1300758990758DDCE4F58BD2AFD2A8D288D2DB
:080B2300AAD28AD2ABC28E22D5
:100B40007F01120B547F38120B547F0C120B547F11
:040B500006020B543A
:10080000758150120B40120B13E4F50CF50D20B45A
:100810001C750C00750D03E4F508F509F526F527A0
:10082000F524F525D290C28E758DDCF58B20B508A8
:10083000750E00750F018005E4F50EF50F7F81122E
:100840000B547BFF7A0A79A6120AC1E50D75F003F5
:10085000A42410120AB87BFF7A0A79A9120AC1E50A
:100860000F75F003A4241E120AB87FC1120B547B2B
:10087000FF7A0A79AE120AC1AF09AE08120AE67B06
:10088000FF7A0A79B4120AC1AF27AE26120AE67BB4
:10089000FF7A0A79B6120AC1AF25AE24120AE6E53C
:0A08A0000A450B24FF929102080E96
:03000300020B7F6E
:090B7F00750C00750D01D28E32D7
:03001300020B7469
:0B0B7400750C00750D02D290C28E328D
:03001B000209DAFD
:1009DA00C0E0C0D075D000C007758DDC758B0005EE
:1009EA001DE51D7002051C0525E52570020524E597
:1009FA001D6464451C704BF524F5250527E5277011
:100A0A00020526E50F6401450E700AE50A450B2426
:100A1A00FF92908002D290E527643C4526700CF53F
:100A2A0026F5270509E50970020508751C00751DDC
:100A3A0000E50B450A70047F0180027F00750A00F9
:090A4A008F0BD007D0D0D0E032B0
:040AE600AB07AA06AA
:100AEA007C007D0A1208C38F82AE02AF037C007DB0
:100AFA000A1208C38C288D29AF82EF2430FF120B0B
:090B0A0064E5292430FF020B64AC
:090AB800F8860308E6FA08E6F9E5
:100AC1008B288A29892AAB28AA29A92A1208AAFFD0
:020AD1006012B1
:100AD300F52B7401252AF52AE43529F529120B642F
:030AE30080E2228C
:100B2B0075A0FFC297D2968005E5A030E706C29567
:050B3B00D29580F522B7
:100B5400120B2BC295C297C296D2958FA0C2952232
:100B6400120B2BC295D297C296D2958FA0C2952212
:10095A00020800E493A3F8E493A34003F68001F2AB
:10096A0008DFF48029E493A3F85407240CC8C3339E
:10097A00C4540F4420C8834004F456800146F6DF6D
:10098A00E4800B0102040810204080900A53E47EA0
:10099A00019360BCA3FF543F30E509541FFEE49362
:1009AA00A360010ECF54C025E060A840B8E493A329
:1009BA00FAE493A3F8E493A3C8C582C8CAC583CA54
:1009CA00F0A3C8C582C8CAC583CADFE9DEE780BE0C
:010A85000070
:1008AA00BB010689828A83E0225002E722BBFE024C
:0908BA00E32289828A83E493227F
:1008C300C2D5EC30E709B2D5E4C39DFDE49CFCEE50
:1008D30030E715B2D5E4C39FFFE49EFE1208F9C3C7
:1008E300E49DFDE49CFC80031208F930D507C3E4C2
:0608F3009FFFE49EFE22BF
:1008F900BC000BBE0029EF8DF084FFADF022E4CCE3
:10090900F875F008EF2FFFEE33FEEC33FCEE9DECAB
:10091900984005FCEE9DFE0FD5F0E9E4CEFD22EDF1
:10092900F8F5F0EE8420D21CFEADF075F008EF2F3B
:10093900FFED33FD4007985006D5F0F222C398FD2C
:050949000FD5F0EA22C9
:00000001FF
