:0300000002096191
:0C096100787FE4F6D8FD7581100209A82B
:100A7700C0F9A4B0999282F880908883C6A1868E27
:030AAD00010EFF38
:100A63008F0BE50BD39400400A750C7DD50CFD1557
:040A73000B80EF22E3
:1009ED00E51075F00A8485F008E51075F00A84F5B8
:0409FD0009AD08FF39
:100A0100D2A6EF900A7793F5807F05120A63C2A6FA
:100A1100D2A77580FEC2A7D2A6ED93F5807F0512FD
:0C0A21000A63C2A6D2A77580FDC2A722FE
:0C0A8700EF900A7793F580D2A6C2A62259
:1008000075B0FE85B00F530FF0E50F64F070497FAF
:100810000A120A6385B00F530FF0E50F64F06038D9
:1008200085B00FE50F2482601B24C0601224E060B5
:100830000924F07012E4F510800D75100180087520
:1008400010028003751003E50F64F0600885B00F97
:10085000530FF080F21209ED75B0FD85B00F530F04
:10086000F0E50F64F070497F0A120A6385B00F53F8
:100870000FF0E50F64F0603885B00FE50F2483605A
:100880001B24C0601224E0600924F070127510046B
:10089000800D75100580087510068003751007E53A
:1008A0000F64F0600885B00F530FF080F21209ED6D
:1008B00075B0FB85B00F530FF0E50F64F070497F02
:1008C0000A120A6385B00F530FF0E50F64F0603829
:1008D00085B00FE50F2485601B24C0601224E06002
:1008E0000924F07012751008800D751013800875BA
:1008F000100A800375100BE50F64F0600885B00FD7
:10090000530FF080F21209ED75B0F785B00F530F59
:10091000F0E50F64F070497F0A120A6385B00F5347
:100920000FF0E50F64F0603885B00FE50F248960A3
:100930001B24C0601224E0600924F0701275100CB2
:10094000800D75100D800875100E800375100FE571
:100950000F64F0600885B00F530FF080F21209EDBC
:010960002274
:100A2D00758901D28C758C4CE4F58AD2A9D2AFE5CB
:100A3D000AB41412E4F50A050D150E850E90E50D98
:100A4D00B43C03E4F50DE50D75F00A8485F008E579
:060A5D000D1209F880D91A
:050AA80012080080FBB4
:0C0A93007EFF8E907FD0120A631E80F65A
:03000B00020A9F47
:090A9F00758C4C758A00050A32C1
:10096D00020A93E493A3F8E493A34003F68001F203
:10097D0008DFF48029E493A3F85407240CC8C3338B
:10098D00C4540F4420C8834004F456800146F6DF5A
:10099D00E4800B0102040810204080900AADE47E33
:1009AD00019360BCA3FF543F30E509541FFEE4934F
:1009BD00A360010ECF54C025E060A840B8E493A316
:1009CD00FAE493A3F8E493A3C8C582C8CAC583CA41
:1009DD00F0A3C8C582C8CAC583CADFE9DEE780BEF9
:010AB0000045
:00000001FF
